:10000000F8C0000027C1000025C1000023C1000086
:1000100021C100001FC100001DC100001BC1000064
:1000200019C1000017C1000015C1000013C1000074
:1000300011C100000FC100000DC100000BC1000084
:1000400009C1000007C1000005C1000003C1000094
:1000500001C10000FFC00000FDC000000C94C426D8
:10006000F9C000000C94982A0C94CE2AF3C000002A
:10007000F1C00000EFC00000EDC00000EBC00000C8
:10008000E9C00000E7C00000E5C00000E3C00000D8
:100090000C94242B0C945A2BDDC00000DBC0000014
:1000A000D9C00000D7C00000D5C00000D3C00000F8
:1000B000D1C00000CFC00000CDC00000CBC0000008
:1000C000C9C00000C7C000000C9405230C94B02BDD
:1000D0000C94E62BBFC000000C943C2C0C94722CAA
:1000E000B9C0000000000A0B02090C0D0E0807033E
:1000F00004010000000000000000000000000000FB
:1001000000000000000000000000000000000000EF
:1001100012111000000000000000000000000000AC
:100120000000000000000000000001021020200874
:100130000810204010204080020102010804020142
:1001400001020408102040808040201008040201B1
:10015000800402018040201008040201080402010A
:100160000102040810204080010204081020408091
:1001700005050505070508080808020202020A0A23
:100180000808040404040101010101010101030341
:10019000030303030303040707070C0C0C0C0C0CEC
:1001A0000C0C0202020206060606060606060B0BE9
:1001B0000B0B0B0B0B0B00002200250028002B0063
:1001C0002E003100340002010000050108010B017E
:1001D00000002100240027002A002D0030003300F9
:1001E00001010000040107010A01F72A832B0F2CEB
:1001F0009B2C11241FBECFEFD1E2DEBFCDBF00E0AC
:100200000CBF12E0A0E0B2E0E6E9FAE500E00BBFC7
:1002100002C007900D92A43BB107D9F726E0A4EBEA
:10022000B2E001C01D92A83BB207E1F710E0C9EFB0
:10023000D0E000E006C021970109802FFE010E9456
:10024000182DC53FD10780E00807A9F70E94212497
:100250000C94492DD5CECF92DF92EF92FF92CF939F
:10026000882351F16A017B01CFEFC80F20E030E015
:10027000A901CB01B6010E940E2587FF11C0C7015D
:10028000B60190580E947F259B01AC016C2F70E055
:1002900090E080E0CF91FF90EF90DF90CF90B2C0E0
:1002A000C701B6010E947A258C2FCF91FF90EF9065
:1002B000DF90CF900C94CB27CF91FF90EF90DF9001
:1002C000CF9008950F931F938B019C0183E0369587
:1002D0002795179507958A95D1F70C541D4F462FF2
:1002E000477021E030E0F90102C0EE0FFF1F4A9590
:1002F000E2F7AF01F80120812423CB0101962111FF
:1003000002C090E080E01F910F9108950F931F931A
:100310008B019C0183E036952795179507958A9563
:10032000D1F7677081E090E001C0880F6A95EAF725
:10033000F801EC54FD4F2081452B31F48095822348
:1003400080831F910F910895822BFACF2F923F92B5
:100350004F925F926F927F928F929F92AF92BF92D5
:10036000CF92DF92EF92FF920F931F93CF93DF9381
:10037000D62EC72E782E692E49015A01280161E038
:100380008D2D0E940529CD2DDC2D8E010F5F1F4F75
:10039000A8016D2D7C2D872D962DB8DF20E030E053
:1003A000A901C201B7010E945D26181664F4C201BA
:1003B000B7010E947F252B01C501B4010E947F2552
:1003C000A201CE0123D0C801DF91CF911F910F91DF
:1003D000FF90EF90DF90CF90BF90AF909F908F9065
:1003E0007F906F905F904F903F902F90089588235B
:1003F00041F08150682F70E090E080E050E040E0F4
:1004000085CF0895862FB9010C94CB279C01FC0160
:10041000EC51FF4FE491E150E231E0F4F0E0882745
:10042000EB5EFD4F8F4F0C94182D27022E023102E8
:1004300048025D022A0272027E0282029902AE0224
:10044000C302DA02EF022A0204031B03300384B55D
:10045000806884BD60E0822F0C94412984B580625D
:10046000F8CF809180008C7F8260809380008091A3
:100470008100807E8061682B6093810050938700AB
:100480004093860080918000806880938000E2CF56
:10049000809180008C7F82608093800080918100B9
:1004A000807E8061682B6093810050938700409329
:1004B0008600809180008062E8CF809180008C7FF0
:1004C00082608093800080918100807E8061682BB3
:1004D0006093810050938700409386008091800054
:1004E0008860D3CF8091B00080688093B000809105
:1004F000B100887F682B6093B100ACCF8091B000D1
:100500008062F3CF809190008C7F82608093900016
:1005100080919100807E8061682B60939100509360
:10052000970040939600809190008068809390009F
:1005300091CF809190008C7F826080939000809119
:100540009100807E8061682B6093910050939700AA
:1005500040939600809190008062E8CF8091900057
:100560008C7F82608093900080919100807E80617A
:10057000682B609391005093970040939600809170
:1005800090008860D3CF8091A0008C7F82608093A0
:10059000A0008091A100807E8061682B6093A10003
:1005A0005093A7004093A6008091A000806880939C
:1005B000A00050CF8091A0008C7F82608093A0002B
:1005C0008091A100807E8061682B6093A100509390
:1005D000A7004093A6008091A0008062E8CF8091A0
:1005E000A0008C7F82608093A0008091A100807E1B
:1005F0008061682B6093A1005093A7004093A600F0
:100600008091A0008860D3CF809120018C7F826090
:100610008093200180912101807E8061682B60930E
:100620002101509327014093260180912001806889
:10063000809320010FCF809120018C7F8260809376
:10064000200180912101807E8061682B60932101CF
:100650005093270140932601809120018062E8CFCA
:10066000809120018C7F8260809320018091210104
:10067000807E8061682B6093210150932701409315
:100680002601809120018860D3CF90E080E008951A
:100690000F931F93009709F487C06115710509F442
:1006A00083C000910402109105022091060230914E
:1006B00007020E3F1F4F2F4F3F4F09F066C04FEF0D
:1006C0005FEFBA0140930402509305026093060263
:1006D0007093070240910402509105026091060256
:1006E00070910702DC011296ED91FC91808191815D
:1006F000A281B3818093290390932A03A0932B03B3
:10070000B0932C0384819581A681B78180932503C2
:1007100090932603A0932703B093280380859185A7
:10072000A285B3858093210390932203A093230392
:10073000B093240384859585A685B78580931D0392
:1007400090931E03A0931F03B093200310921903EC
:1007500010921A0310921B0310921C03AAD48EE766
:1007600098E09093BE028093BD029093C002809364
:10077000BF028ED3009731F421E030E030932E0396
:1007800020932D031F910F91089500910402109161
:1007900005022091060230910702DB010D931D93A3
:1007A0002D933C93139796CF8FEF9FEFEBCF8F92C4
:1007B0009F92AF92BF92CF92DF92EF92FF921F93E0
:1007C000CF93DF934B015C011091300382E090E006
:1007D00090932E0380932D0381149104A104B104FE
:1007E00041F480913003811104C080912F03C1E056
:1007F0008111C0E0C12CD12C760180913003811190
:1008000006C080912F03811102C0CC23D1F083E078
:1008100090E090932E0380932D03CC2371F1CCE9CB
:10082000DFEF111101C0CED7CE01DF91CF911F9123
:10083000FF90EF90DF90CF90BF90AF909F908F9000
:1008400008956AE070E080E090E00E94332780E144
:10085000C80E87E2D81EE11CF11C8FEF881698069F
:10086000A806B80631F0C1E08C149D04AE04BF04A4
:1008700008F0C0E080E040D3C0CFD0E0C0E0D1CFEE
:10088000CF92DF92EF92FF920F931F93CF93DF935C
:100890008F3F910511F008F050C020912D03309149
:1008A0002E032330310539F020912D0330912E0392
:1008B0002130310531F424E030E030932E032093D1
:1008C0002D036A017B01EC0182309105A0F011E05B
:1008D000AE01C701B601DBD2AB01BC01CE011123D1
:1008E000F9F0DF91CF911F910F91FF90EF90DF9082
:1008F000CF900C940B0E8C01000F111F03541D4F51
:10090000D8018D919C91892B11F30E94150E0297AD
:10091000F1F6D801ED91FC91CE011995182FD8CFA1
:100920000E942D0E90E080E0DF91CF911F910F91FA
:10093000FF90EF90DF90CF9008958FEF9FEFF4CF6F
:1009400080E0DAC2CF93DF9386E090E090932E03AD
:1009500080932D032AD3EC01EDEBF2E084E0DF017C
:100960001D928A95E9F7C6D610922E0310922D0398
:10097000CE01DF91CF91089580912F03089580914A
:100980001803089560930402709305028093060291
:100990009093070290E080E008954F925F926F92EB
:1009A0007F928F929F92AF92BF92CF92DF92EF92FF
:1009B000FF92CF93DF93C0900002D0900102E090AD
:1009C0000202F090030220E030E04FE753E4C70159
:1009D000B6010E940E25181634F4C12CD12C8FE7D5
:1009E000E82E83E4F82E68E070E080E090E06ADCB6
:1009F000EC019093B4068093B30620E030E0A901A7
:100A0000C701B6010E945D2687FF03C0C12CD12C0F
:100A1000760120E038E74AE057E4C701B6010E94BA
:100A2000612620E030E04FE753E40E941225AB013D
:100A3000BC017058CE010FDCC090EB02D090EC02EC
:100A4000E090ED02F090EE028FEFC81AD80AE80AA3
:100A5000F80AC092EB02D092EC02E092ED02F09222
:100A6000EE02C114D104E104F10499F48091EF0283
:100A70009091F002A091F102B091F2020196A11DB5
:100A8000B11D8093EF029093F002A093F102B09316
:100A9000F2028090F3029090F402A090F502B090E0
:100AA000F6026091EF027091F0028091F102909154
:100AB000F2020E94AB25A50194010E94612620E06C
:100AC00030E040E85FE40E9461262B013C01C70151
:100AD000B6010E94AB25A50194010E9461269B01ED
:100AE000AC01C301B2010E94AA246093E702709393
:100AF000E8028093E9029093EA02DF91CF91FF90A0
:100B0000EF90DF90CF90BF90AF909F908F907F90AD
:100B10006F905F904F900895DF92EF92FF920F9346
:100B20001F93CF93DF93E1EDF2E08BE2DF011D92A3
:100B30008A95E9F780E090E0A0E8BFEB86A397A351
:100B4000A0A7B1A78CEB94E7A3E1BCE382A393A396
:100B5000A4A3B5A386EB98EEA9EFB4E284839583B2
:100B6000A683B7838FEB9EEFA5EBB3E480879187D5
:100B7000A287B38782E194E2A2EFB7E384879587E7
:100B8000A687B78781E798E6A5E8B3EB808B918BC2
:100B9000A28BB38BA5ECB2E0B383A283E1ECF2E0CD
:100BA0001196FC93EE9381E292E09183808393838C
:100BB000828385EE92E015969C938E93149785ED33
:100BC00092E013969C938E93129787EE92E017967D
:100BD0009C938E931697CDEAD6E089E0FE011192A0
:100BE0008A95E9F7DD24D394D88681E090E0A0E0EF
:100BF000B0E089839A83AB83BC83E12C18E7F12EA4
:100C00000AE017E420E030E040E050E468E070E003
:100C100080E090E09BDB9F838E83DD82DF91CF912C
:100C20001F910F91FF90EF90DF9008958091AD0696
:100C300081112BC081E08093AD068091AE0690912A
:100C4000AF06A091B006B091B1060197A105B1051C
:100C5000E1F48091B2068823C1F068E070E080E0A2
:100C600090E030DB9093B4068093B30640E050E010
:100C700060E070E8F0DA68E070E080E090E022DBAD
:100C80009093B4068093B306B2CB08954F925F92CF
:100C90006F927F928F929F92AF92BF92CF92DF928C
:100CA000EF92FF920F931F93F89440900803509097
:100CB000090360900A0370900B03C090FC02D0906F
:100CC000FD02E090FE02F090FF02452B09F0A4C067
:100CD0009B01AC01241935094609570929013A013C
:100CE000009104031091050320910603309107033E
:100CF00048015901840C951CA61CB71C801691064E
:100D0000A206B306A0F40091000310910103209104
:100D10000203309103030F5F1F4F2F4F3F4F00938C
:100D20000003109301032093020330930303809286
:100D3000040390920503A0920603B092070300916A
:100D4000000310910103209102033091030380926C
:100D50000C0390920D03A0920E03B0920F03009328
:100D60001003109311032093120330931303609325
:100D700008037093090380930A0390930B03A8E27E
:100D8000B3E2A30192010E94202D6C0D7D1D8E1DEA
:100D90009F1D6093FC027093FD028093FE0290936E
:100DA000FF02009104021091050220910602309189
:100DB00007020F3F1F4F2F4F3F4FF1F000910402EA
:100DC0001091050220910602309107020E3F1F4F3D
:100DD0002F4F3F4F89F0C0900402D0900502E09061
:100DE0000602F090070221E08C149D04AE04BF04BB
:100DF00008F420E02093180378941F910F91FF903E
:100E0000EF90DF90CF90BF90AF909F908F907F90AA
:100E10006F905F904F9008954B015C018418950886
:100E2000A608B708A3019201261B370B480B590BE4
:100E30006415750586059705D0F082169306A406FD
:100E4000B50640F420E030E0A90181149104A1042A
:100E5000B10491F4A8E2B3E20E94202DA70196010B
:100E6000261B370B480B590BCA01B901C5CF821697
:100E70009306A406B50670F7A8E2B3E2A5019401B3
:100E80000E94202D6C0D7D1D8E1D9F1DB5CFFECEA9
:100E9000CF93DF9300D01F92CDB7DEB71C821B82A9
:100EA0001A821982109214031092150310921603DD
:100EB00010921703BE016F5F7F4FCE0103960E9411
:100EC000D62269817A818B819C810E94291D00979D
:100ED00061F4BE016F5F7F4FCE0103960E94E22254
:100EE00069817A818B819C812ED50F900F900F9014
:100EF0000F90DF91CF910895FF920F931F93CF939F
:100F0000DF93082F60E070E0CB010E943327FF24BD
:100F1000F3940E94121CEC01892B89F010E0CE3F63
:100F20008FEFD80769F0002361F160E070E0CB013A
:100F30000E94332781E090E0892B59F322C011E011
:100F400025D5EC01892B21F0CE3F8FEFD80759F73B
:100F500011111EC011E0229609F410E00E94C21B7C
:100F6000EC01892B21F0CE3F8FEFD807E1F611116C
:100F700011C011E0CE3F8FEFD80709F410E0011146
:100F80000BC0CE01DF91CF911F910F91FF9008957B
:100F900011E0E4CF11E0F3CF60E070E0CB010E94FC
:100FA00033271F25812F90E0C7CFCF93DF93809108
:100FB0001803882321F060E070E0CB014CD635D6D1
:100FC000D0E0C0E0892B71F06AE070E080E090E052
:100FD0000E94332781E090DF28D62196C03D27E08C
:100FE000D20781F727D60E947D1D10923003109200
:100FF0002F031092290310922A0310922B031092B0
:101000002C031092250310922603109227031092AE
:1010100028031092210310922203109223031092AE
:10102000240310921D0310921E0310921F031092AE
:1010300020031092190310921A0310921B031092AE
:101040001C034EEF5FEF6FEF7FEF4093040250936E
:101050000502609306027093070210921803ECE0F9
:10106000F3E028E0DF011D922A95E9F710920803CA
:101070001092090310920A0310920B0310920403BA
:1010800010920503109206031092070310920003BA
:101090001092010310920203109203031092FC02BB
:1010A0001092FD021092FE021092FF02DF91CF918A
:1010B000089510923C0310923D0310923E0310924B
:1010C0003F0310923B03809144039091450390931A
:1010D0003A03809339031092380310923703109229
:1010E000330310923403109235031092360310929A
:1010F00041031092400390E080E00895CF92DF9288
:10110000EF92FF920F931F93CF938C01892B09F0DD
:1011100055C020914403309145038091390390914B
:101120003A03409144035091450350933A0340934E
:1011300039032817390781F01092380310923703CA
:101140001092330310923403109235031092360339
:101150001092410310924003809144039091450303
:10116000019761F58091400390914103892B21F40F
:1011700080910802811112C0809140039091410337
:101180000197E1F48091330390913403A0913503EA
:10119000B09136030197A105B10581F41092330394
:1011A0001092340310923503109236031092080205
:1011B00082E090E090934103809340038091440348
:1011C00090914503019709F01CC180915A039091B9
:1011D0005B038017910709F014C180915603909129
:1011E0005703A0915803B0915903009709F409C11E
:1011F0002091550321110DC0409156035091570382
:101200006091580370915903452B462B472B09F4E5
:10121000F8C020914003309141032230310509F09C
:10122000F0C0209137032111ECC0FC01C080D180B7
:10123000E280F38080913B03882309F4D3C080913E
:10124000470390914803892B09F4FDC0209147037F
:101250003091480381E02230310509F080E020918F
:10126000470330914803C1E02130310549F0209116
:10127000470330914803C1E02230310509F0C0E056
:10128000882309F456C020915103309152034091B4
:10129000530350915403C701B6010E945D2687FD98
:1012A00014C0209151033091520340915303509147
:1012B000540360913C0370913D0380913E039091F3
:1012C0003F030E940E2587FD22C0209151033091DB
:1012D00052034091530350915403C701B6010E9439
:1012E0005D26181634F52091510330915203409138
:1012F00053035091540360913C0370913D038091DE
:101300003E0390913F030E940E25811112C08091EF
:10131000490390914A03A0914B03B0914C03892B50
:101320008A2B8B2B19F481E08093380381E0809322
:101330003703CC2309F456C0209151033091520356
:101340004091530350915403C701B6010E940E25EA
:1013500087FF14C0209151033091520340915303F1
:101360005091540360913C0370913D0380913E0382
:1013700090913F030E945D2687FF22C02091510378
:10138000309152034091530350915403C701B60169
:101390000E940E25811126C02091510330915203E5
:1013A000409153035091540360913C0370913D036D
:1013B00080913E0390913F030E945D26181694F49D
:1013C0008091490390914A03A0914B03B0914C0343
:1013D000892B8A2B8B2B19F481E08093380381E0D1
:1013E0008093370381E090913703911180E08093DF
:1013F0003B03C0923C03D0923D03E0923E03F09247
:101400003F03012B09F067C1809140039091410394
:10141000892BD9F410924603109237038091080269
:10142000882379F082E090E0909341038093400319
:1014300010920802209144033091450381E0232B50
:10144000E9F080E01BC081E00ACF10920802809191
:101450004603882349F010923803109241031092FA
:10146000400310924603EDCF8091440390914503D1
:10147000892BE1F0809137031092370320914003CC
:10148000309141032230310509F45EC088F4211502
:10149000310509F448C02130310509F4F3C0109238
:1014A0003803109237031092460338C081E0E6CF2C
:1014B0002330310509F4B1C02430310581F7409162
:1014C0003303509134036091350370913603411515
:1014D00051056105710561F04150510961097109BA
:1014E0004093330350933403609335037093360372
:1014F000409133035091340360913503709136036A
:10150000452B462B472BD9F42091420330914303BE
:101510002130310509F046C0109238031092410382
:10152000109240030CC080910802882341F082E0B1
:1015300090E0909341038093400310920802109230
:10154000310380913803CEC08823C9F380914903C9
:1015500090914A03A0914B03B0914C0318161906C1
:101560001A061B060CF07DC0809144039091450340
:10157000019709F076C08091490390914A03A091A8
:101580004B03B0914C038093330390933403A093A7
:101590003503B093360383E090E09093410380934A
:1015A0004003CDCF40914D0350914E0360914F03C6
:1015B00070915003452B462B472BA9F0109238030E
:1015C00080914D0390914E03A0914F03B091500331
:1015D0008093330390933403A0933503B093360381
:1015E00081E090E0DACF882399F080910902909110
:1015F0000A02A0910B02B0910C02809333039093E6
:101600003403A0933503B093360384E090E0C5CF54
:101610001092380382E090E0C0CF80913303909124
:101620003403A0913503B09136030097A105B105AD
:1016300059F00197A109B1098093330390933403C2
:10164000A0933503B0933603809133039091340314
:10165000A0913503B0913603892B8A2B8B2B09F08F
:101660006ECF8091090290910A02A0910B02B09175
:101670000C02892B8A2B8B2B09F44ECF81E08093AF
:101680003803B3CF40913303509134036091350355
:1016900070913603411551056105710561F04150A6
:1016A00051096109710940933303509334036093E6
:1016B00035037093360340913303509134036091A6
:1016C000350370913603452B462B472B09F037CF56
:1016D0008111C7CF9FCF80913103882309F431CF87
:1016E00080913203CF911F910F91FF90EF90DF9087
:1016F000CF90089510923C0310923D0310923E0348
:1017000010923F0310923B0310924103109240034A
:1017100010923A031092390310925B0310925A030D
:10172000109238031092370310923303109234034F
:101730001092350310923603109232031092310347
:1017400010925603109257031092580310925903A7
:1017500010925503109251031092520310925303AA
:101760001092540388EE93E0A0E0B0E08093090269
:1017700090930A02A0930B02B0930C0210924D03B7
:1017800010924E0310924F0310925003109249038F
:1017900010924A0310924B0310924C03109248038C
:1017A0001092470381E08093080210924603109242
:1017B000450310924403109243031092420390E0B9
:1017C00080E008958091440390914503892B19F599
:1017D00080910802882351F080914603811106C050
:1017E00081E0809332038093310308952091460372
:1017F0003091080281E090E0332311F090E080E026
:1018000030E082239323892B21F01092320381E070
:10181000EACF10923103089582E090E0FA019183BB
:1018200080838FEF9FEF0895CF93DF93EA010097B6
:1018300011F00E94F71D1982188290E080E0DF917C
:10184000CF910895DB01009719F48FEF8C930895E1
:101850002EEF2C93FC013F96EF30F10508F034C0D9
:101860008827EA5CF34F8F4F0C94182D620C600CA4
:101870005E0C5C0C5A0C560C580C540C520C500C50
:101880004D0C490C450C4B0C640C80E311968C9369
:10189000089589E2FBCF82E2F9CF11961C92089558
:1018A00083E2F4CF81E2F2CF81E1F0CF87E2EECFA5
:1018B0008AE2ECCF80E1EACF84E2E8CF88E2E6CFAB
:1018C00086E2E4CF81E3E2CF80E2E0CF809168035B
:1018D0009091690308959093690380936803089534
:1018E00080916703089590916703892B8093670324
:1018F0000895982F909580916703892380936703BB
:101900000895809166030895809164039091650322
:1019100008956115710559F0FB0130E020E070E099
:1019200060E02417350719F06115710511F0CB013E
:101930000895A081B181A817B90709F4BF012F5FED
:101940003F4F3696EECF80916A0381111CC060D262
:1019500066D290935D0380935C030E94AA160E9456
:10196000BC1690936103809360030E942A1B0E941F
:10197000311B90935F0380935E0381E080936A0341
:1019800090E080E0089584EF9FEF08958F929F92FA
:10199000AF92BF92CF92DF92EF92FF920F931F937D
:1019A000CF93DF9300D000D000D01F92CDB7DEB729
:1019B0001A86198618861F821E821D821C821B822F
:1019C0001A82198280916A0307EF1FEF882309F4B6
:1019D0009CC08E010D5F1F4F9E012B5F3F4FAE01DC
:1019E000495F5F4FBE01675F7F4F90E080E00E94DC
:1019F000AE1C8C01009721F00596029708F0DBC021
:101A000029853A852115310509F402C1ED80FE8052
:101A10004B815C81B701640F751F8F819885861794
:101A2000970708F4F5C0E20EF31ED7019C91903C95
:101A300009F07FC04230510508F47BC011968C91AB
:101A40004091680350916903452B09F49CC0913F74
:101A500008F071C02CE1290F2D3008F48BC02DE265
:101A6000290F203108F489C0903C21F48150823044
:101A700008F483C088E3890F8B3008F481C092E2B8
:101A8000C92E9CE0D92EECE0FCE06D817E81AE0198
:101A90004F5F5F4F89859A8519955C01C114D10408
:101AA000A1F189809A808114910479F18B819C81C4
:101AB0008815990508F487C010E000E04B815C812F
:101AC00070E060E0C7010E94422D01151105E9F4A4
:101AD00049815A8169857A858D819E81680F791F38
:101AE000C501F6011995E980FA800D811E812F81CB
:101AF000388549855A856FEF7FEF81E090E00E943D
:101B0000491C8C01892B09F056C0C8012A960FB6D2
:101B1000F894DEBF0FBECDBFDF91CF911F910F9123
:101B2000FF90EF90DF90CF90BF90AF909F908F90FD
:101B3000089580E085CF30E020E0220F331FF901C7
:101B4000E45AFC4F0190F081E02D309709F497CFD3
:101B5000892F90E01995009709F491CFDC01129636
:101B6000ED91FC9113971496CD90DC90309709F08D
:101B70008CCF1FC021E030E0E0CF22E030E0DDCFAD
:101B800023E030E0DACFD12CC12CE4E1FCE09F3F30
:101B900009F07BCFE0915C03F0915D03309721F475
:101BA000C90104EF1FEF0CC08FEF90E0199500976B
:101BB000A9F604EF1FEF89859A85009709F4A5CF50
:101BC0000E94F71DA2CF0E94781D8C0189859A85FD
:101BD0000E94F71D70E060E0C4010E94111D98870B
:101BE0008F830E94461C9E838D836F81788561154B
:101BF000710559F0C8010E941A1F9A87898706EF5C
:101C00001FEF892B09F058CF59CF08EF1FEF56CFA0
:101C100008EF1FEFD0CF20916A03222319F020E0B4
:101C20000C94C11687EF9FEF0895809168039091FF
:101C3000690308950E94361B0E94901AF5D0ECE5C6
:101C4000F3E088E0DF011D928A95E9F710926A03BC
:101C500090E080E008950C94EE1821E040E050E020
:101C6000BA010C94C11686E090E0FA01918380835A
:101C700090E080E0089547E050E064E272E049CEF1
:101C8000DF92EF92FF920F931F93CF93DF938A011E
:101C9000EC01C60FD71FE0906E03F0906F03D98060
:101CA0000E94601DD816190678F082E090E0F801D5
:101CB000918380838EEF9FEFDF91CF911F910F91E2
:101CC000FF90EF90DF900895EF2841F482E090E0DC
:101CD000F8019183808384EF9FEFEECF8981809319
:101CE0006D0390E00196F8019183808390E080E09D
:101CF000E3CFCF93DF93EA010E949F19882321F05D
:101D00000E946D1D0E94A01982E090E09983888353
:101D10008BEF9FEFDF91CF910895CF93DF93EB018E
:101D200086E0FB0111928A95E9F78FEF8883D8DD71
:101D30008983E7DD8A83E8DD9D838C83DF91CF9102
:101D40000895CF93DF93EA010E94A219811109C07F
:101D500082E090E09983888385EF9FEFDF91CF91B8
:101D6000089590E080E0B7DD81E090E0998388837A
:101D700090E080E0F3CF0F931F93CF93DF93EA01BE
:101D80008C01060F171F0E94A21981110BC082E05F
:101D900090E09983888385EF9FEFDF91CF911F912A
:101DA0000F910895F8018181823038F082E090E04F
:101DB000998388838EEF9FEFF0CF81E090E08BDDF9
:101DC00088E090E09983888390E080E0E6CFCF932D
:101DD000DF930097D1F4EB01FB01329686E0DF013F
:101DE0001D928A95E9F78FEF888385E089831A82AF
:101DF0000E94601D8B830E945F1D9D838C8381E008
:101E00008E838F83DF91CF910895DF91CF911ACD8B
:101E10008BE39EE090936C0380936B030895809115
:101E20006B0390916C03089510926C0310926B03F6
:101E3000089580916E0390916F030895411105C03C
:101E4000611571058105910561F060936E037093D2
:101E50006F0380937003909371034093720381E04A
:101E6000089580E00895FF920F931F93CF93DF931F
:101E70008A01EC01C60FD71FF9800E94601DF81679
:101E8000190668F082E090E0F801918380838EEF7C
:101E90009FEFDF91CF911F910F91FF9008956C817B
:101EA0007D818E819F814B81C9DF811108C082E0D5
:101EB00090E0F8019183808384EF9FEFEACF8981DE
:101EC00080936D0390E00196F8019183808390E008
:101ED00080E0DFCFCF93DF93EA01FC01E60FF71F2D
:101EE00064817581868197814381A8DF811109C052
:101EF00082E090E09983888384EF9FEFDF91CF9118
:101F0000089581E090E09983888390E080E0F6CFA7
:101F1000EEE6F3E04081518162817381480F511DEB
:101F2000611D711D40835183628373830895CF9334
:101F3000C0916D034C2F50E060916E0370916F0360
:101F400001960E94392D8C2FE3DF10926D03CF9103
:101F50000895009799F480916E0390916F032FEF8D
:101F6000FB012083892B59F020916D0330E02F5F16
:101F70003F4F2417350719F4CB01D9CF63CC08950F
:101F8000009799F480916E0390916F032FEFFB01FE
:101F90002083892B59F020916D0330E02F5F3F4F54
:101FA0002417350719F4CB01C2CF4CCC089523E197
:101FB000AC01249FC001259F900D1124E09177036F
:101FC000F0917803E80FF91F238134812250310901
:101FD00081E02230310508F080E008950F931F93CF
:101FE000CF93DF930091790310917A03D0E0C0E0A2
:101FF00080E00C171D0749F491E0811190E0892FD2
:10200000DF91CF911F910F9108958111F5CFCE01EE
:10201000CEDF2196EECFA0917703B0917803109791
:1020200029F12091790330917A0382179307F0F414
:1020300053E1589F9001599F300D1124A20FB31FF7
:10204000ED91FC911197309789F012968C91681759
:1020500068F48BE0689FE00DF11D1124808191816F
:10206000892B21F081E09281491708F080E00895E2
:102070009C0143E1429FC001439F900D1124E091D8
:102080007703F0917803E80FF91F8385823091F48C
:1020900081E090E06581768140910D0250910E02C1
:1020A0006417750711F490E080E0892B19F081E046
:1020B000232B09F080E00895EF92FF920F931F9376
:1020C000CF93DF93EA01FC01E60FF71F0281138132
:1020D000E480F5804F2D6E2DC8019DDF81110DC06C
:1020E00082E090E0998388838EEF9FEFDF91CF911C
:1020F0001F910F91FF90EF900895C80158DF88233A
:1021000039F082E090E09983888388EF9FEFEECFEB
:102110001093140200931302E0921502F09216023B
:1021200081E090E09983888390E080E0DFCFCF92D8
:10213000DF92EF92FF920F931F93CF93DF937A0179
:10214000EC01C60FD71FC0901302D090140200916B
:10215000150210911602412F602FC6015CDF81111C
:1021600010C082E090E0F701918380838AEF9FEFB7
:10217000DF91CF911F910F91FF90EF90DF90CF9063
:102180000895C60114DF882341F082E090E0F70152
:102190009183808388EF9FEFEBCF4C815D816E81CF
:1021A0007F819A8189818F3F41F082E090E0F70141
:1021B000918380838EEF9FEFDBCFE3E1EC9D900175
:1021C000ED9D300D1124E0917703F0917803E20F3B
:1021D000F31F0190F081E02D2BE0029FE00DF11D37
:1021E00011240190F081E02D27E0129FE00DF11DF8
:1021F0001124808391838B818283438354836583FD
:1022000076831F5F1093160281E090E0F7019183BF
:10221000808390E080E0ACCFEF92FF920F931F930A
:10222000CF93DF937A018C01060F171FC0917703BC
:10223000D0917803209781F021E030E0F80182818D
:1022400093814091790350917A038417950710F098
:1022500030E020E0232B71F482E090E0F7019183DD
:1022600080838EEF9FEFDF91CF911F910F91FF90B1
:10227000EF90089543E1489F9001499F300D11244C
:10228000C20FD31F94DE882341F082E090E0F70173
:102290009183808388EF9FEFE6CFF8012481358119
:1022A00020383105C8F687818111D6CF4181842F2E
:1022B00090E08F7E009741F082E090E0F7019183FB
:1022C000808386EF9FEFCFCF4F833E832D83268180
:1022D00028871986223010F421E0288721E030E099
:1022E000F70131832083BFCF88E090E0FA0191832A
:1022F000808390E080E00895FB018FEF808381E18F
:1023000081838FEF9FEF9383828380E890E09583B2
:102310008483168217820895FB018FEF808391E0FA
:10232000918382839383848384E3858381E090E037
:10233000978386830895DF92EF92FF920F931F9306
:10234000CF93DF93EA01FC01E60FF71F8181813013
:1023500071F082E090E0998388838FEF9FEFDF91A7
:10236000CF911F910F91FF90EF90DF9008958281A0
:102370009381D4802581E680F780009177031091C6
:1023800078030115110539F482E090E09983888380
:102390008CEF9FEFE4CF4091790350917A0384173B
:1023A000950738F082E090E0998388838EEF9FEF65
:1023B000D6CF892B39F082E090E09983888386EF2D
:1023C0009FEFCDCF8D2D8D7FB1F72130A1F781E02B
:1023D000D11006C091E0E916F10431F080E004C0AC
:1023E000E2E0EE16F104D0F3882329F390E080E0D8
:1023F000DEDD882339F082E090E09983888388EFDE
:102400009FEFADCFF801D38681E08487F686E5861D
:10241000108A178681E090E09983888390E080E0BD
:102420009ECF4CE050E06EE472E073CA8F929F92B0
:10243000BF92CF92DF92EF92FF920F931F93CF93B1
:10244000DF93EA01FC01E60FF71F8281938104818B
:10245000B580E0917703F0917803309791F482E0B2
:1024600090E0998388838CEF9FEFDF91CF911F914C
:102470000F91FF90EF90DF90CF90BF909F908F9043
:1024800008952091790330917A038217930738F0E9
:1024900082E090E0998388838EEF9FEFE6CF23E17F
:1024A000289F6001299FD00C1124EC0DFD1DE080B8
:1024B000F180E114F10499F28281081748F78BE06A
:1024C000089F80011124E00EF11EF70180819181A7
:1024D000892B29F6BB20E1F2F7E0BF9E40011124D1
:1024E000C4010E94F41DF70191838083E09177037A
:1024F000F0917803EC0DFD1D0190F081E02DE00FCF
:10250000F11F80819181009739F482E090E09983F6
:1025100088838DEF9FEFA9CFA40170E060E00E9457
:10252000422D8091770390917803C80ED91EF60151
:1025300080819181080F191FF801B28281E090E03B
:102540009983888390E080E090CFAF92BF92CF9242
:10255000DF92FF920F931F93CF93DF93EA01FC0169
:10256000E60FF71F82819381F48000917703109129
:1025700078030115110581F482E090E09983888346
:102580008CEF9FEFDF91CF911F910F91FF90DF9024
:10259000CF90BF90AF9008952091790330917A0346
:1025A0008217930738F082E090E0998388838EEF5A
:1025B0009FEFE8CF2FEF2F0D2C3FA8F723E1289FA7
:1025C0006001299FD00C11240C0D1D1DF801808184
:1025D0009181892B89F6FBE0FF9E50011124C501F2
:1025E0000E94F41DF80191838083E0917703F091BC
:1025F0007803EC0DFD1D80819181009739F482E014
:1026000090E0998388838DEF9FEFBCCFA50170E0A8
:1026100060E00E94422DE0917703F0917803EC0D89
:10262000FD1DF28281E090E09983888390E080E054
:10263000A9CFCF92DF92EF92FF920F931F93CF9388
:10264000DF93860F971FFC0102811381809177032E
:1026500090917803892B81F082E090E0FA019183D8
:1026600080838CEF9FEFDF91CF911F910F91FF90AF
:10267000EF90DF90CF900895C801B0E0A0E00197FF
:10268000A109B1098F3F9F4FA105B10540F082E03C
:1026900090E0FA01918380838EEF9FEFE4CF7A017F
:1026A00083E1809F6001819FD00C1124C6010E94AC
:1026B000F41DEC01009741F482E090E0F701918372
:1026C00080838DEF9FEFCFCFA60170E060E00E9486
:1026D000422DD0937803C093770310937A0300932D
:1026E000790390E080E02FEF3FEF41E061E070E0A0
:1026F0008017910741F481E090E0F7019183808396
:1027000090E080E0B0CF3A8B298B1B864C877E8788
:102710006D87188A1F8601966396EACFCF92DF9263
:10272000EF92FF920F931F93CF93DF93EC01D12C85
:10273000C12C10E000E0F12CE12C6A816017110639
:1027400009F0CCF483E0689FB0011124AE014F5E24
:102750005F4FC7010E94211E009721F02FEF3FEF2E
:102760003A8B298BDF91CF911F910F91FF90EF90C2
:10277000DF90CF900895E881F981EC0DFD1D438134
:1027800054818D859E85489F9001499F300D589FAB
:10279000300D1124C90101960115110519F44F815D
:1027A00044FD049661E070E00E94111DE816F906F0
:1027B00008F47C010F5F1F4F8BE0C80ED11CBDCF0A
:1027C000F894209175033091760381E0211531054D
:1027D00009F080E0232B09F0789408952F923F921E
:1027E0004F925F926F927F928F929F92AF92BF9221
:1027F000CF92DF92EF92FF920F931F93CF93DF93CD
:102800003C01660E771EF301828193814C01B12C4D
:10281000A12CC0917703D0917803209769F021E033
:1028200030E06091790370917A038617970710F072
:1028300030E020E0232BD1F482E090E0FA01918394
:1028400080838EEF9FEFDF91CF911F910F91FF90CB
:10285000EF90DF90CF90BF90AF909F908F907F9040
:102860006F905F904F903F902F9008958092170245
:1028700090921802A0921902B0921A0263E1689F26
:102880009001699F300D1124C20FD31FF301818184
:10289000833040F082E090E0FA019183808386EFFC
:1028A0009FEFD1CF2A012B813C81232BF1F428818A
:1028B00039819F8191FF2EC0232B09F46FC0209195
:1028C0007C039A81422F490F5527551FBA0141E0D9
:1028D00050E06138710514F050E040E0452B09F4F8
:1028E0005DC02A87920F90937C038150823008F458
:1028F00081C066DF882309F4D8C0F301818181306B
:1029000009F48DC008F47BC0823009F4C6C090E0A1
:1029100080E0ADC0232B09F441C020917B039A8154
:10292000E22FE90FFF27FF1F41E050E0ED3FF105E7
:1029300014F050E040E0452B89F12A87920F9093E4
:102940007B03D3CFA081B181A20FB31F11966C91ED
:10295000060F111D0196295F3F4F8417950794F3C9
:102960008D859E85089F1001099F300C189F300CA3
:102970001124C114D104D1F48F8184FF17C00E94A7
:102980005F1DF5E02F0E311C21E08215930508F440
:1029900020E0A701455F5F4F21110EC082E090E06B
:1029A000F2019183808387EF9FEF4DCF0E945F1DDF
:1029B0002FEF221A320AE8CF88819981E80EF91E9A
:1029C000F70114830383FFEFCF1ADF0A7A018A81AC
:1029D0008C151D0409F00CF48CCFE881F981EE0D03
:1029E000FF1D428150E030E020E010E000E090E088
:1029F00080E0B3CFF12CE12CD12CC12CE8CF81E0C9
:102A000090E09C838B83EADA882309F480CF81E00D
:102A100090E00E946B0C80E40E94790C78CF898949
:102A20009A89019661F083E090E09C838B8382E039
:102A300090E00E946B0C80E40E94730C68CF8D8143
:102A40009E8120910D0230910E0282179307D1F4DE
:102A50006091110270911202AE014F5E5F4F809142
:102A60000F02909110020E94D91E0097E1F2789413
:102A700022E030E0F20131832083892B99F08DEF41
:102A80009FEFE1CE89288A288B2869F6892B59F691
:102A9000CE0144DE188A1F86E8CF82E090E09C8356
:102AA0008B8335CF90E080E0CECE82E090E0F201E3
:102AB0009183808385EF9FEFC6CE8F929F92AF92D6
:102AC000BF92CF92DF92EF92FF920F931F93CF931B
:102AD000DF93EA018C01060F171FF8018181833013
:102AE00098F082E090E09983888386EF9FEFDF91F2
:102AF000CF911F910F91FF90EF90DF90CF90BF90FB
:102B0000AF909F908F900895809177039091780374
:102B1000892B61F081E090E02091790330917A0374
:102B2000232B11F490E080E0892B39F482E090E0CF
:102B3000998388838EEF9FEFDACF42DE882309F4F2
:102B4000DFC0F8018181813009F495C0E8F082305E
:102B500099F42091790330917A03E0917703F09111
:102B6000780390E080E041E050E02817390709F051
:102B7000BDC034DA811117C0789481E090E0998368
:102B8000888390E080E0B3CF2091790330917A037D
:102B9000E0917703F091780390E080E041E050E02D
:102BA0002817390741F481E090E00E946B0C80E423
:102BB0000E94790CE1CF63817481672B11F05483FB
:102BC000438301967396ECCFE0917703F0917803FD
:102BD000E00FF11F2381348122303105D9F421899E
:102BE00032892F3F3F4FB1F42581368140910D024C
:102BF00050910E022417350761F5AF014F5E5F4F0C
:102C0000609111027091120280910F029091100256
:102C10000E94D91EEFEFCE1ADE0AEE0AFE0A0D5E02
:102C20001F4F4091790350917A0370E060E0C41621
:102C3000D506E606F7063CF5009731F27894892B25
:102C400009F49BCF82E090E0998388838DEF9FEF1A
:102C50004ECFC114D104E104F104E1F6232BD1F6E7
:102C6000CF015CDDE0917703F0917803E00FF11F75
:102C7000108A1786CFCF10E000E090E080E0C12CF2
:102C8000D12C7601CECF0097C9F610E000E0812C60
:102C9000912C540183E0E82EF12C1AC0E0917703C7
:102CA000F0917803E00FF11F83819481029749F43A
:102CB000F482E38282E090E00E946B0C80E40E9448
:102CC000730CFFEF8F1A9F0AAF0ABF0A0D5E1F4FEA
:102CD0008091790390917A03B0E0A0E0881699067C
:102CE000AA06BB06DCF290E080E0A8CF6381748185
:102CF0006230710511F4548343830196739635CF86
:102D000082E090E09983888385EF9FEFF0CE009773
:102D1000B9F48FEFFB0180832091170230911802E4
:102D200043E1429FC001439F900D1124E09177033E
:102D3000F0917803E80FF91F8285FB0181830895E4
:102D40000C94220C88E090E0FA019183808390E05B
:102D500080E008951092760310927503E7E7F3E0A0
:102D600086E0DF011D928A95E9F781E192E1909377
:102D70007403809373030895809173039091740397
:102D800008952F923F924F925F926F927F928F920F
:102D90009F92AF92BF92CF92DF92EF92FF920F93EA
:102DA0001F93CF93DF93CDB7DEB760970FB6F8943C
:102DB000DEBF0FBECDBFF894E0917503F0917603AE
:102DC0003196F0937603E09375037894A09177039E
:102DD000B0917803BA83A983109709F4F9C1E091FF
:102DE0007903F0917A03EF2B09F4F2C128874B871E
:102DF0005C876D877E879A878987B88BAF87312CF0
:102E0000212CF12C512C412C8091790390917A0343
:102E10002816390610F4FF2029F1F89480917503E3
:102E2000909176030197909376038093750378943D
:102E3000C20160960FB6F894DEBF0FBECDBFDF9122
:102E4000CF911F910F91FF90EF90DF90CF90BF90A7
:102E5000AF909F908F907F906F905F904F903F903A
:102E60002F900895B10190E080E087D4682EEF851F
:102E7000F889878181FD3DC0838194810397C9F5DD
:102E8000258136813C832B8389859A8528173907CC
:102E900081F5C101EDD8782E8823A9F1AF85B889D5
:102EA0001F968D919C915097019621E01D964D9112
:102EB0005C918417950709F020E02F83B12CA12C99
:102EC000EF85F88982818A151B0419F014F0FF2020
:102ED000E9F0F885FF2309F46BC1AF85B8895096F6
:102EE0001C921E921F97662021F0B10190E080E0B5
:102EF00046D4FFEF2F1A3F0A2F8538892D5E3F4FAA
:102F0000388B2F8781CFB1E0BF83D8CFBFD49E83CA
:102F10008D83E885EE23E9F0772009F43BC1AF8586
:102F2000B8891F968D919C91892B79F0BBE0BA9D51
:102F3000C001BB9D900D1124AF85B889ED91FC9126
:102F4000E80FF91F8581968152D6BFEFAB1ABB0AF5
:102F5000B7CF81E0772039F0EF85F8892785308970
:102F6000232B09F080E0F82EE12CA114B10439F4F0
:102F7000AF85B8891796EC90E4FAEE24E0F8BBE050
:102F8000BA9D6001BB9DD00C1124882309F423C194
:102F9000AF85B889ED91FC911197EC0DFD1D438132
:102FA00054811D962D913C91429FC001439F900DED
:102FB000529F900D1124E1105CC001969087878389
:102FC00061E070E0878190852CD5EF85F8892189B3
:102FD0003289008111810C0D1D1D2F3F320709F42C
:102FE0004AC0BC01C90126D7D80116969C938E937E
:102FF0001597AF85B889ED91FC911197EC0DFD1DEA
:10300000058116810115110509F4CDC0ED81FE8100
:103010000E0F1F1F1A968C918A0DD8018C93E11008
:103020002FC00F5F1F4FAF85B889ED91FC91EC0D5C
:10303000FD1D12870187AF85B889ED91FC91EC0DDC
:10304000FD1D85819681892B09F4A4C080910D0214
:1030500090910E022B813C812817390709F465C035
:10306000772011F001851285912C812C1A8219820A
:103070004AC00596A3CFB8D5F80196838583B9CF0A
:103080008B859C85AD85BE85F80181839283A38362
:10309000B4830B5F1F4FC7CFE080F180E80CF91CB1
:1030A000D70113966D917C9114978C918F3F09F401
:1030B00073C0E1E0F0E002C0EE0FFF1F8A95E2F777
:1030C000CF01092E000CAA0BBB0BFB0140815181E3
:1030D0006281738184239523A623B72321E0892B62
:1030E0008A2B8B2B09F420E0D8012C93D701119661
:1030F0008C91080F111DE981FA813196FA83E983D9
:10310000F7E08F0E911CAF85B889ED91FC91EC0D25
:10311000FD1D828129813A818217130611F00CF07E
:10312000BBCF772011F0128701873F81332391F1C4
:10313000AF85B889ED91FC91EC0DFD1D61E070E06B
:10314000878190856ED4AF85B889ED91FC91EC0DA7
:10315000FD1DE780F08445815681E1E0F0E06620C6
:1031600011F0F0E0E0E00D811E819C01B1018827A3
:1031700099278E1B9F0B8DD32C01892B59F0EF853E
:10318000F88980819181C80ED91ED60115968D913E
:103190009C912DD5F12CD9CEF701418150E0C80189
:1031A0000E94392DA3CF86EF482E55245A94CDCEB8
:1031B000EF85F889878590890196908B878725858B
:1031C00036858217930709F08ECE108A17868BCE2C
:1031D000512C412C22CE10E000E02DCF2F923F92B7
:1031E0004F925F926F927F928F929F92AF92BF9217
:1031F000CF92DF92EF92FF920F931F93CF93DF93C3
:10320000809177039091780310E000E0892BA9F07A
:10321000D7DA0AEF1FEF882381F0209079033090EE
:103220007A03C0917703D0917803D12CC12C10E0A0
:1032300000E02C143D04A9F47894C801DF91CF91EB
:103240001F910F91FF90EF90DF90CF90BF90AF90C4
:103250009F908F907F906F905F904F903F902F90B6
:103260000895C6010E943810882309F18B819C8142
:103270000397E9F48F859889892BC9F0B60190E00E
:1032800080E07BD221E030E0882311F030E020E0C4
:1032900044245524421A530AB12CA12C912C812C80
:1032A0008A818815190409F038F4188A1F864FEFAF
:1032B000C41AD40A6396BDCFE881F981EA0DFB1DDB
:1032C00085819681892BA1F161E070E087819085ED
:1032D000A8D33C01DBD28C01E881F981EA0DFB1D0A
:1032E0008185928525813681200F311FAC01421BDB
:1032F000530B9A0147815085421B530B70E060E0ED
:103300000E94422DE881F981EA0DFB1DE780F084DF
:10331000458156819301B601C201BBD28C01892B34
:1033200039F0E881F981EA0DFB1D858196815FD432
:103330005FEF851A950A8BE0A80EB11CB1CF40CA89
:10334000789408952F923F924F925F926F927F925E
:103350009F92AF92BF92CF92DF92EF92FF920F9324
:103360001F93CF93DF9300D000D0CDB7DEB700918D
:10337000770310917803992493940115110509F4AA
:103380003EC0A0907903B0907A031ADA982E882371
:10339000B1F1109278031092770310927A03109291
:1033A000790310927B0310927C038FEF9FEFDC0177
:1033B0008093170290931802A0931902B0931A02F7
:1033C00078947FD31E830D83C12CD12C7601C50147
:1033D000B0E0A0E089839A83AB83BC8322242A9443
:1033E000322C89819A81AB81BC81C816D906EA0644
:1033F000FB06F4F0C801FBD380E40E94790C892D10
:1034000026960FB6F894DEBF0FBECDBFDF91CF91E9
:103410001F910F91FF90EF90DF90CF90BF90AF90F2
:103420009F907F906F905F904F903F902F90089566
:10343000AD81BE8115968D919C91169720910D02BC
:1034400030910E0282179307D1F451968D919C9181
:10345000DFD4ED81FE8180819181B12CA12C412CA2
:10346000512C3201892B89F5BFEFCB1ADB0AEB0A0D
:10347000FB0AED81FE817396FE83ED83B2CFC1140A
:10348000D104E104F10429F7892B19F7ED81FE81BC
:10349000818992898F3F980709F05CD4AD81BE8104
:1034A00052963C922E925197D4CF8A0D9B1DDC01EF
:1034B0008D919C91009709F09AD3BFEF4B1A5B0A4C
:1034C0006B0A7B0AEBE0AE0EB11CAD81BE818D9123
:1034D0009C91119712964C9150E070E060E0441678
:1034E0005506660677060CF382D3BECFCF93DF93E3
:1034F000EA0128DF811109C082E090E09983888386
:1035000085EF9FEFDF91CF91089581E090E00E94D9
:103510006B0C81E090E09983888390E080E0F2CFAB
:1035200011DF1092740310927303089542E050E08B
:1035300066E972E00C94890CFF920F931F93CF936E
:10354000DF938A01EC01C60FD71FF980B9D2089723
:10355000F816190671F068F082E090E0F8019183A6
:1035600080838EEF9FEFDF91CF911F910F91FF909E
:1035700008956C817D818E819F814B810E941E0FF9
:10358000811108C082E090E0F8019183808384EF8C
:103590009FEFE9CFF9800E94190F4F2D50E0BE0137
:1035A000685F7F4F0E94392D89810E94880F81E0DA
:1035B00090E0F8019183808390E080E0D4CFDF92A7
:1035C000EF92FF920F931F93CF93DF938A01EC0149
:1035D000C60FD71F0E94190F7C01D98071D2DD2040
:1035E00059F0029721E030E0D816190619F010F0D2
:1035F00030E020E0232B79F482E090E0F801918321
:1036000080838EEF9FEFDF91CF911F910F91FF90FD
:10361000EF90DF900895EF2841F482E090E0F80108
:103620009183808384EF9FEFEECFF9800E94190F82
:103630004F2D50E0BE016E5F7F4F0E94392D898172
:103640000E94880F81E090E0F8019183808390E0F0
:1036500080E0D9CF86E99AE190937E0380937D0341
:10366000089580917D0390917E0308950895FC0153
:1036700011821082938382830895DB011D921C9234
:10368000DC011296ED91FC91139771836083139680
:103690007C936E9312970895FC0180819181DB01E8
:1036A0008D939C93A081B181109741F08D919C9155
:1036B00091838083892B11F4F383E2830895FC01C5
:1036C00080819181DB018D939C93892B11F473830D
:1036D0006283718360830895FC0111821082938359
:1036E00082830895CF93DF931F921F92CDB7DEB7E9
:1036F0001A821982F894BE016F5F7F4F84E893E0CD
:10370000CBDF89819A81009709F071D289819A81F2
:10371000892B89F7BE016F5F7F4F88E893E0BCDF9C
:1037200089819A81009709F062D289819A81892BD7
:1037300089F778940F900F90DF91CF910895CF93F0
:10374000DF931F921F92CDB7DEB71A821982F894C9
:10375000BE016F5F7F4F80E893E09EDF89819A8191
:10376000009709F044D289819A81892B89F778944E
:103770000F900F90DF91CF91089581E0089590E030
:1037800080E00895EF92FF920F931F93CF93DF9302
:103790001F921F92CDB7DEB71A82198280917F03E4
:1037A00007EF1FEF8823A1F1F894BE016F5F7F4FF1
:1037B00088E893E071DF789489819A81EE24E3941C
:1037C000F12C892B51F4F894BE016F5F7F4F84E890
:1037D00093E062DF7894F12CE12C89819A810EEFDD
:1037E0001FEF0097A9F0FC014281538164E070E073
:1037F00011D58C01892B61F0F89469817A81C70118
:10380000880F991F880F991F8C579C4F58DF789409
:10381000C8010F900F90DF91CF911F910F91FF90F2
:10382000EF9008950F931F93CF93DF9300D01F92D3
:10383000CDB7DEB71C821B821A82198280917F036A
:1038400007EF1FEF8823C1F0AE014D5F5F4F64E0CB
:1038500070E0CE01019651D58C01892B69F4E98184
:10386000FA818B819C8193838283F89469817A8128
:1038700080E893E002DF7894C8010F900F900F90DA
:103880000F90DF91CF911F910F91089556D6049616
:1038900008958F929F92AF92BF92CF92DF92EF9254
:1038A000FF920F931F93CF93DF931F921F92CDB779
:1038B000DEB71A821982BC016F5F7F4F63307105DA
:1038C00098F0AA24AA94BA2CC5010F900F90DF910A
:1038D000CF911F910F91FF90EF90DF90CF90BF900D
:1038E000AF909F908F9008954115510551F3480175
:1038F00059018A016C01CADF8815990511F7E11495
:10390000F104F9F28E0D9F1DA816B906D0F2809130
:103910007F038823F1F0F894B50164507109970191
:10392000AE014F5F5F4FC80104967CD55C01892BC7
:1039300071F489819A81F80193838283C601880F8B
:10394000991F880F991FB8018C579C4F96DE789469
:10395000BBCF87EFA82EBB24BA94B6CFAF92BF924D
:10396000CF92DF92EF92FF920F931F93CF93DF934B
:103970001F921F92CDB7DEB71A821982892B09F0E8
:1039800047C06115710509F443C04115510509F49B
:103990003FC02115310509F43BC001151105C1F1E6
:1039A00080917F038823B9F179016A015B01F89462
:1039B000BE016F5F7F4F80E893E06EDE789489816F
:1039C0009A81009759F1DC0112966D917C91A801C2
:1039D000049641D58C01E981FA81D501ED93FC93E0
:1039E000828193810496F601918380834FDFD70112
:1039F0008D939C93C8010F900F90DF91CF911F91F1
:103A00000F91FF90EF90DF90CF90BF90AF9008950F
:103A10000FEF1FEFEFCF07EF1FEFECCF0EEF1FEF12
:103A2000E9CFCF93DF93EC01672B71F48FD58C171F
:103A30009D0760F082D52496C80FD91F81D58C0FC1
:103A40009D1FDF91CF9108957ED5F1CF90E080E06A
:103A5000F8CF0F931F93CF93DF9320917F03211112
:103A60002BC08B01EC0184E893E001DE88E893E051
:103A7000FEDD80E893E0FBDD97D00097C1F466D5CA
:103A800070E060E0CEDF4BE152E062E070E0D9D060
:103A9000009769F480911B0290911C0269D5B801CE
:103AA000CE019ED3009719F421E020937F03DF918C
:103AB000CF911F910F91089584EF9FEFF8CF43C5E9
:103AC00045C5CF93DF9345D5EC01892B11F40ADE70
:103AD00036DECE01DF91CF910895CF93DF9339D5B4
:103AE000EC01892B09F4FEDDCE01DF91CF91089521
:103AF00080911B0290911C020895CF93DF938091D7
:103B00007F03D0E0C0E08823D1F037D5EC01892BCA
:103B1000B1F4E8DD14DE80911B0290911C021AD1F1
:103B2000CED1EC01892B59F484E893E0D5DD88E807
:103B300093E0D2DD80E893E0CFDD10927F03CE01E9
:103B4000DF91CF910895EF92FF920F931F93CF9340
:103B5000DF93EC017A018B010F5F1F4F0E9DA001D7
:103B60000F9D500D1E9D500D112470E060E00E94CD
:103B7000422D90E080E0F0E0E0E02FEFE816F9065B
:103B800039F4DF91CF911F910F91FF90EF9008953D
:103B90001A8219822883309711F0D283C18301964B
:103BA000FE01C00FD11FEACFEEE8F3E085E8DF01A8
:103BB0001D928A95E9F710928D0310928C03EAE129
:103BC000F4E011821082158214821382128217820D
:103BD000168211861086E6E1F4E0118210821382CB
:103BE000128290E080E0089590E080E008950097D0
:103BF00039F1DC018E91813041F4E0911804F091AB
:103C000019043097E9F0CD011994811119C0F89485
:103C10008FEF8C9380911A0490911B0412969C93C1
:103C20008E931197B0931B04A0931A0480911C04E7
:103C300090911D04019690931D0480931C04789428
:103C40000895EF92FF920F931F93CF93DF93411547
:103C5000510509F47CC0009709F479C0611571051C
:103C600009F475C0EA01AB01BC01F89480911A0413
:103C700090911B04892B19F581E993E08C7F6D5F8E
:103C80007F4F6C7F9B012F5F3F4F249F8001259FBB
:103C9000100D349F100D1124209122043091230423
:103CA0002115310509F03CC0E0908C03F0908D03A4
:103CB00022E830E02E193F092017310730F47894BC
:103CC0002FEF3FEF86EF9FEF22C090931B0480936E
:103CD0001A0450931F0440931E0450931D044093F4
:103CE0001C04709321046093200410932304009318
:103CF0002204009709F027DF0E0D1F1D10938D037E
:103D000000938C03789430E020E090E080E03983E9
:103D10002883DF91CF911F910F91FF90EF9008952D
:103D20002017310760F290931B0480931A0450937C
:103D30001F0440931E0450931D0440931C04709371
:103D40002104609320040097E9F2FDDEDBCF8FEFC2
:103D50009FEFDFCF892B51F5F89410921B0410923E
:103D60001A0410921F0410921E0410921D04109247
:103D70001C041092210410922004209122043091FE
:103D800023042115310571F080918C0390918D03EE
:103D9000821B930B90938D0380938C0310922304CA
:103DA00010922204789490E080E008958FEF9FEFC6
:103DB00008954115510549F1009739F161157105D3
:103DC00021F1F8942091160430911704232BB9F4B3
:103DD0002091180430911904232B89F4909317042F
:103DE000809316047093190460931804789421E06A
:103DF00030E090E080E0FA013183208308957894E8
:103E00002FEF3FEF86EF9FEFF6CF8FEF9FEF0895F5
:103E1000019769F4F8941092170410921604109206
:103E2000190410921804789490E080E008958FEFC0
:103E30009FEF08956115710519F4F0E0E0E011C0FD
:103E40008130910581F4E0911604F09117043097C8
:103E5000A1F3CB0101961995009779F3FC0181E05C
:103E60008193CF010895892B41F780911A04909195
:103E70001B04892B11F38091200490912104861753
:103E80009707D8F2F89480911C0490911D04009734
:103E900031F0E0911A04F0911B04309711F47894FA
:103EA000CCCF2181328130931B0420931A040197D7
:103EB00090931D0480931C0411927894D2CFE3E177
:103EC000F4E083E0DF011D928A95E9F7EEE8F3E084
:103ED00085E8DF011D928A95E9F710928D03109213
:103EE0008C03EAE1F4E08AE0DF011D928A95E9F7AC
:103EF000E6E1F4E084E0DF011D928A95E9F790E0C5
:103F000080E00895CF93DF93C0911D02D0911E02EF
:103F1000CF3FDC0759F4DAD390931E0280931D0241
:103F200097FF09C0D0931E02C0931D0284EF9FEF3C
:103F3000DF91CF91089590E080E0FACF8230910533
:103F400028F48093240490E080E008958FEF9FEFA1
:103F500008954F925F926F927F92AF92BF92CF92ED
:103F6000DF92EF92FF920F931F93CF93DF931F92F5
:103F70001F92CDB7DEB71A821982009709F478C074
:103F80006115710509F474C020911D0230911E0263
:103F900007EF1FEF2F3F3F4F09F444C06B015C0157
:103FA000412C512C3201F12CE12C10E000E09E015B
:103FB0002F5F3F4FA6014E195F09B5016E0D7F1DA2
:103FC00080911D0290911E02E0D3892B09F04AC016
:103FD00089819A81009741F4E114F10429F4209138
:103FE0002404222309F441C0E80EF91EEC14FD0458
:103FF000C8F480E8481684E858068EE16806710423
:1040000018F560E070E0CB012ED72AE0420E511C7B
:10401000611C711C0A3F4FEF140721F0043F8FEF22
:104020001807A1F4C8010F900F90DF91CF911F9155
:104030000F91FF90EF90DF90CF90BF90AF907F9067
:104040006F905F904F90089501EF1FEF81E090E037
:10405000013F2FEF120711F090E080E0892B09F467
:10406000A6CFE0CF04EF1FEFDDCF0AEF1FEFDACFCF
:104070000FEF1FEFD7CF4F925F926F927F92AF9269
:10408000BF92CF92DF92EF92FF920F931F93CF9345
:10409000DF931F921F92CDB7DEB71A821982009765
:1040A00009F478C06115710509F474C020911D02EE
:1040B00030911E0207EF1FEF2F3F3F4F09F444C01E
:1040C0006B015C01412C512C3201F12CE12C10E0F0
:1040D00000E09E012F5F3F4FA6014E195F09B50119
:1040E0006E0D7F1D80911D0290911E0204D3892BBD
:1040F00009F04AC089819A81009741F4E114F104E2
:1041000029F420912404222309F441C0E80EF91E69
:10411000EC14FD04C8F480E8481686E9580688E9DE
:104120006806710418F560E070E0CB019CD62AE0C7
:10413000420E511C611C711C0E3F4FEF140721F001
:10414000043F8FEF1807A1F4C8010F900F90DF9183
:10415000CF911F910F91FF90EF90DF90CF90BF9084
:10416000AF907F906F905F904F90089502EF1FEF98
:1041700081E090E0023F2FEF120711F090E080E025
:10418000892B09F4A6CFE0CF04EF1FEFDDCF0EEFB0
:104190001FEFDACF0FEF1FEFD7CF80911D02909165
:1041A0001E028F3F980749F089D2892B49F48FEF7F
:1041B0009FEF90931E0280931D0290E080E008958F
:1041C00084EF9FEF0895FC01680F791F90E080E075
:1041D000E617F70709F408952191820F911DF8CF92
:1041E00020912504211113C08DDE009791F41092C7
:1041F0002B0410922A041092290410922804109281
:1042000027041092260421E020932504089584EFCA
:104210009FEF0895AF92BF92CF92DF92EF92FF92FD
:104220000F931F93CF93DF93009709F460C046303C
:10423000510508F45CC020912504C7EFDFEF22236D
:1042400009F449C08C01060F171FF801C080D18006
:10425000C114D10409F44EC096012A5F3F4F4217A2
:10426000530708F447C07C0180912A0490912B04E5
:1042700093838283B6016C5F7F4F5801A60EB71EF1
:10428000C801A1DFF5019183808364E070E0C8017B
:1042900060DEEC01892BF9F481E090E04FDEB6019D
:1042A000C801049656DEEC01892B91F462E070E0BF
:1042B000C5014FDEEC01892B59F4C70198DC8091D0
:1042C0002A0490912B04019690932B0480932A0446
:1042D00090E080E033DECE01DF91CF911F910F910E
:1042E000FF90EF90DF90CF90BF90AF900895CFEF09
:1042F000DFEFF1CFC9EFDFEFEECF6F927F928F92BA
:104300009F92AF92BF92CF92DF92EF92FF920F9364
:104310001F93CF93DF9300D01F92CDB7DEB70097E6
:1043200009F47AC04115510509F476C0209125049D
:1043300007EF1FEF222309F44DC03A017B015C0116
:1043400064E070E0CE01019696DE8C01892B09F0C5
:1043500041C009811A810115110509F45AC04801AB
:1043600086E0880E911CB701680D791D80911F02AF
:10437000909120025FDD6C01009709F450C0A70105
:1043800070E060E00E94422D89819A81AB81BC81FE
:10439000EC0CFD1CF70181939193A193B1937F01E4
:1043A00081E090E0CBDDB801C70165DE892B31F5F6
:1043B00062E070E0C701800F911F5DDE8C01892BE8
:1043C000E9F490E080E0BADDF501D182C082F3012A
:1043D00091828082C8010F900F900F900F90DF9113
:1043E000CF911F910F91FF90EF90DF90CF90BF90F2
:1043F000AF909F908F907F906F90089590E080E0B5
:104400009DDDF50111821082F30111821082C60137
:10441000EEDB09EF1FEFDECF0FEF1FEFDBCF06EF75
:104420001FEFD8CF0097A1F04115510589F0211554
:10443000310571F0F90136966E177F0748F0DC01FF
:104440002D933C93DA01ED93FC9390E080E0089586
:104450008FEF9FEF0895AF92BF92CF92DF92EF92CE
:10446000FF920F931F93CF93DF93009709F45FC0E0
:104470004115510509F45BC06530710508F457C05A
:1044800020912504C7EFDFEF222391F1DC01CD90CD
:10449000DC9011971296ED91FC9196012A5F3F4FA7
:1044A000C9EFDFEF2617370719F5C0912604D09121
:1044B0002704209749F521E030E03093270420932A
:1044C00026047A018C01F0932904E0932804560114
:1044D000B4E0AB0EB11CB50176DE0A0D1B1DF80170
:1044E000208131818217930729F5D701CD92DC9283
:1044F000CE01DF91CF911F910F91FF90EF90DF9050
:10450000CF90BF90AF900895209128043091290456
:104510002F5F3F4FCCEFDFEFE217F30790F2CBEFC7
:10452000DFEF2E173F0768F2D0E0C0E0CACFCFEF31
:10453000DFEFDECFC3EFDFEFDBCF84E090E0089565
:1045400082E090E008958CEF9FEF089580E290E084
:10455000089510922B0410922A04109229041092AC
:104560002804109227041092260490E080E0089519
:104570009093200280931F02089580912504882340
:1045800091F00BDE009789F410922B0410922A040C
:1045900010922904109228041092270410922604E5
:1045A00010922504089590E080E00895009749F066
:1045B0006115710531F0FC0111821082FB0111823D
:1045C00010820895F3CF26E030E040E855E260E045
:1045D00070E090E080E000C08130910569F01CF44B
:1045E000892B39F008958230910549F0039751F0F5
:1045F000089589E394E03CC786ED94E0FCCF83E71F
:1046000095E0F9CF80E196E0F6CF1F920F920FB6BA
:104610000F9211240BB60F922F933F934F935F93FA
:104620006F937F938F939F93AF93BF93EF93FF937A
:1046300086E397EF9093250180932401BAD0FF91F0
:10464000EF91BF91AF919F918F917F916F915F910A
:104650004F913F912F910F900BBE0F900FBE0F9077
:104660001F90189586E397EF90932501809324017E
:10467000A3E7B0E08C918E7F8C93E0E2F1E0808143
:104680008C7F8083E1E2F1E08081877E808380817E
:104690008360808380818B7F80838C9181608C9309
:1046A0000895E3E7F0E0808190819E7F90838170A0
:1046B000089581E0089510922C04089568EE73E047
:1046C00080E090E0D0D390E080E0089526E030E0F4
:1046D00040E050E16EE070E090E080E07DDF89E353
:1046E00094E0FCD5892B21F089E394E011D6F7CF33
:1046F00090E080E00895CF92DF92EF92FF920F93C7
:104700001F93CF93DF936B017A01E901198218821D
:1047100089E394E0E3D5892B69F18601CC24C39425
:1047200082E0D82E80912C04811110C089E394E09E
:10473000EFD50297B9F7C0922C04F801D1928F01FE
:1047400088819981019699838883ECCF88819981AA
:104750008E159F0578F489E394E0DAD58F3F9807AA
:10476000A9F3F80181938F0188819981019699833A
:104770008883ECCF90E080E0DF91CF911F910F9183
:10478000FF90EF90DF90CF9008950F931F93CF93FA
:10479000DF93EA01890189E394E00E94C82CF801C3
:1047A000D183C08390E080E0DF91CF911F910F9182
:1047B0000895CF92DF92EF92FF92CF93DF93809193
:1047C0002D0491E0980F90932D04882379F021E037
:1047D00030E030932F0420932E0480932D04DF913A
:1047E000CF91FF90EF90DF90CF9008957894C09193
:1047F0002202D09123026E8D7F8D88A199A1ABD129
:1048000020E030E040E85FE45CD26B017C016A8D1F
:104810007B8D8C8D9D8D9FD19B01AC01C701B60115
:1048200099D06DD16B017C010E94CD04B701A60126
:1048300090E080E00E944004F89480912D04815023
:10484000CCCF0F931F93CF93DF931092B7061092A4
:10485000B6063FD3B8DEC0912202D091230219825E
:1048600018826FEF7FEFCB010E94C20470E060E01E
:1048700090E080E00E944503009709F03AC00E9452
:104880008C05F8947894BE016A5D7F4F8A819B8184
:104890000E944803892B59F46FEF7FEFCB010E94F0
:1048A000D7030E94BC04882311F081E08AA7F89402
:1048B000D9DE0E94BF04882311F080E008C00E9466
:1048C000BC048111FACF81E09AA59111F6CF8093B3
:1048D000B60678940E94660C8C0178948091B60696
:1048E00081110CC00E9416060E94A204F89490E068
:1048F00080E0DF91CF911F910F9108950E94A00455
:104900000E94BF048823D9F081E08093B70690917C
:10491000B70681E0911180E08093B6068091B706DA
:104920008111BFDE0130110529F40E94660C892B2C
:1049300009F4C1DE0E94660C8C01BBDECFCF0E9461
:10494000BC048111E1CF81E09AA59111DECF80E016
:10495000DCCF5058BB27AA270ED075C166D130F0E6
:104960006BD120F031F49F3F11F41EF45BC10EF4C3
:10497000E095E7FB51C1E92F77D180F3BA176207C1
:1049800073078407950718F071F49EF58FC10EF434
:10499000E0950B2EBA2FA02D0B01B90190010C014F
:1049A000CA01A0011124FF27591B99F0593F50F467
:1049B000503E68F11A16F040A22F232F342F4427BF
:1049C000585FF3CF469537952795A795F0405395B7
:1049D000C9F77EF41F16BA0B620B730B840BBAF087
:1049E0009150A1F0FF0FBB1F661F771F881FC2F7F2
:1049F0000EC0BA0F621F731F841F48F48795779506
:104A00006795B795F7959E3F08F0B3CF9395880FBC
:104A100008F09927EE0F979587950895D9D008F457
:104A200081E008950CD00FC107D140F0FED030F0E6
:104A300021F45F3F19F0F0C0511139C1F3C014D116
:104A400098F39923C9F35523B1F3951B550BBB2755
:104A5000AA2762177307840738F09F5F5F4F220F02
:104A6000331F441FAA1FA9F333D00E2E3AF0E0E8FB
:104A700030D091505040E695001CCAF729D0FE2F47
:104A800027D0660F771F881FBB1F261737074807D9
:104A9000AB07B0E809F0BB0B802DBF01FF2793588F
:104AA0005F4F2AF09E3F510568F0B6C000C15F3FDE
:104AB000ECF3983EDCF3869577956795B795F79577
:104AC0009F5FC9F7880F911D9695879597F908956F
:104AD000E1E0660F771F881FBB1F6217730784070B
:104AE000BA0720F0621B730B840BBA0BEE1F88F71A
:104AF000E095089504D06894B111D9C00895BCD050
:104B000088F09F5790F0B92F9927B751A0F0D1F0B6
:104B1000660F771F881F991F1AF0BA95C9F712C040
:104B2000B13081F0C3D0B1E00895C0C0672F782FB5
:104B30008827B85F39F0B93FCCF3869577956795AC
:104B4000B395D9F73EF490958095709561957F4F18
:104B50008F4F9F4F0895E89409C097FB3EF49095BE
:104B60008095709561957F4F8F4F9F4F9923A9F046
:104B7000F92F96E9BB279395F695879577956795D5
:104B8000B795F111F8CFFAF4BB0F11F460FF1BC019
:104B90006F5F7F4F8F4F9F4F16C0882311F096E9AC
:104BA00011C0772321F09EE8872F762F05C066235A
:104BB00071F096E8862F70E060E02AF09A95660F13
:104BC000771F881FDAF7880F9695879597F90895CC
:104BD000990F0008550FAA0BE0E8FEEF161617060E
:104BE000E807F907C0F012161306E407F50798F076
:104BF000621B730B840B950B39F40A2661F0232B8F
:104C0000242B252B21F408950A2609F4A140A6950A
:104C10008FEF811D811D089597F99F6780E870E0EF
:104C200060E008959FEF80EC089500240A94161622
:104C3000170618060906089500240A94121613068A
:104C4000140605060895092E0394000C11F4882318
:104C500052F0BB0F40F4BF2B11F460FF04C06F5F34
:104C60007F4F8F4F9F4F089557FD9058440F551F0A
:104C700059F05F3F71F04795880F97FB991F61F0DE
:104C80009F3F79F087950895121613061406551F55
:104C9000F2CF4695F1DF08C0161617061806991FC1
:104CA000F1CF86957105610508940895E894BB27B6
:104CB00066277727CB0197F908958ADF08F48FEFED
:104CC00008950BD0C0CFB1DF28F0B6DF18F09523E0
:104CD00009F0A2CFA7CF1124EACFC6DFA0F3959F9A
:104CE000D1F3950F50E0551F629FF001729FBB27D3
:104CF000F00DB11D639FAA27F00DB11DAA1F649F7F
:104D00006627B00DA11D661F829F2227B00DA11D31
:104D1000621F739FB00DA11D621F839FA00D611DB7
:104D2000221F749F3327A00D611D231F849F600DD8
:104D3000211D822F762F6A2F11249F5750408AF011
:104D4000E1F088234AF0EE0FFF1FBB1F661F771F9D
:104D5000881F91505040A9F79E3F510570F05CCFDD
:104D6000A6CF5F3FECF3983EDCF386957795679589
:104D7000B795F795E7959F5FC1F7FE2B880F911DBB
:104D80009695879597F908951F920F920FB60F92F7
:104D900011242F933F938F939F93AF93BF93809151
:104DA000310490913204A0913304B09134043091D5
:104DB000300423E0230F2D3758F50196A11DB11DB6
:104DC000209330048093310490933204A0933304F1
:104DD000B09334048091350490913604A091370447
:104DE000B09138040196A11DB11D809335049093B4
:104DF0003604A0933704B0933804BF91AF919F91CC
:104E00008F913F912F910F900FBE0F901F9018958B
:104E100026E8230F0296A11DB11DD2CF3FB7F8940B
:104E20008091350490913604A0913704B0913804F4
:104E300026B5A89B05C02F3F19F00196A11DB11DF5
:104E40003FBFBA2FA92F982F8827BC01CD01620F31
:104E5000711D811D911D42E0660F771F881F991FEC
:104E60004A95D1F708958F929F92AF92BF92CF92B9
:104E7000DF92EF92FF926B017C01D0DF4B015C016E
:104E8000C114D104E104F104D9F0AFD5C7DF68192A
:104E900079098A099B09683E73408105910580F371
:104EA00021E0C21AD108E108F10888EE880E83E0FB
:104EB000981EA11CB11CC114D104E104F10431F706
:104EC000FF90EF90DF90CF90BF90AF909F908F902A
:104ED0000895789484B5826084BD84B5816084BD72
:104EE00085B5826085BD85B5816085BDEEE6F0E063
:104EF000808181608083E1E8F0E0108280818260BF
:104F00008083808181608083E0E8F0E0808181603F
:104F10008083E1EBF0E0808184608083E0EBF0E06F
:104F2000808181608083E1E9F0E08081826080831C
:104F3000808181608083E0E9F0E08081816080830E
:104F4000E1EAF0E0808182608083808181608083FB
:104F5000E0EAF0E0808181608083E1E2F1E080813D
:104F600082608083808181608083E0E2F1E08081E3
:104F700081608083EAE7F0E08081846080838081C3
:104F8000826080838081816080838081806880836B
:104F90001092C10008951F93CF93DF93182FEB0158
:104FA00061E033D1209731F460E0812FDF91CF9120
:104FB0001F9167C1CF3FD10511F461E0F6CFE12F1A
:104FC000F0E0EC51FF4FE491E150E23108F0B2C063
:104FD000F0E08827E251F84D8F4F2AC500280828B5
:104FE0000D28172821289A282B2833283B284528C4
:104FF0004F285928682872289A287C2886289028C3
:1050000084B5806884BDC7BDDF91CF911F9108959D
:1050100084B5806284BDC8BDF7CF80918000806870
:1050200080938000D0938900C0938800EDCF809159
:105030008000806280938000D0938B00C0938A00B0
:10504000E3CF80918000886080938000D0938D00B2
:10505000C0938C00D9CF8091B00080688093B0005D
:10506000C093B300D1CF8091B00080628093B00034
:10507000C093B400C9CF8091900080688093900065
:10508000D0939900C0939800BFCF80919000806228
:1050900080939000D0939B00C0939A00B5CF8091ED
:1050A0009000886080939000D0939D00C0939C00F6
:1050B000ABCF8091A00080688093A0008091A00079
:1050C0008F7B8093A000D093A900C093A8009CCFB1
:1050D0008091A00080628093A000D093AB00C09329
:1050E000AA0092CF8091A00088608093A000D09306
:1050F000AD00C093AC0088CF809120018068809380
:105100002001D0932901C09328017ECF80912001F6
:10511000806280932001D0932B01C0932A0174CF29
:1051200080912001886080932001D0932D01C0934D
:105130002C016ACFC038D1050CF03FCF35CF81505C
:10514000823108F059C0E82FF0E08827E655F74D86
:105150008F4F6EC4CA28CE28BC28C228C628FC2877
:10516000D128D728DB28E128E528E928EF28F328EB
:10517000FC28F728FD280129809180008F778093F3
:1051800080000895809180008F7DF9CF809180000C
:10519000877FF5CF84B58F7784BD089584B58F7DE3
:1051A000FBCF8091B0008F778093B00008958091FD
:1051B000B0008F7DF9CF809190008F778093900021
:1051C0000895809190008F7DF9CF80919000877F26
:1051D000F5CF8091A0008F778093A00008958091F3
:1051E000A0008F7DF9CF8091A000877FF5CF8091BF
:1051F00020018F77809320010895809120018F7D79
:10520000F9CF80912001877FF5CFCF93DF9390E096
:10521000FC01E65DFE4F249180599E4FFC01849174
:105220008823C9F090E0880F991FFC01E053FE4FDE
:10523000A591B491FC01EA54FE4FC591D49161113E
:105240000DC09FB7F8948C91209582238C93888110
:10525000282328839FBFDF91CF910895623051F4B6
:105260009FB7F8943C91822F809583238C93E8819B
:105270002E2BEFCF8FB7F894EC912E2B2C938FBF62
:10528000EACF1F93CF93DF93282F30E0F901EC5141
:10529000FF4F8491F901E65DFE4FD491F901E05989
:1052A000FE4FC491CC23A1F0162F811148DFEC2FC3
:1052B000F0E0EE0FFF1FEA54FE4FA591B4918FB7B7
:1052C000F894EC91111108C0D095DE23DC938FBFC8
:1052D000DF91CF911F910895DE2BF8CFFC01918DC6
:1052E000228D892F90E0805C9F4F821B91098F73E4
:1052F00099270895FC01918D828D981731F0828D48
:10530000E80FF11D858D90E008958FEF9FEF0895D0
:10531000FC01918D828D981761F0A28DAE0FBF2F89
:10532000B11D5D968C91928D9F5F9F73928F90E0DF
:1053300008958FEF9FEF0895FC01538D448D252F25
:1053400030E0842F90E0821B930B541710F0CF961F
:10535000089501970895FC01A48DA80FB92FB11DE0
:10536000A35ABF4F2C91848D90E001968F7399279B
:10537000848FA689B7892C93A089B1898C91837079
:1053800080648C93938D848D981306C00288F38972
:10539000E02D80818F7D80830895CF93DF93EC0192
:1053A000888D8823B1F0AA89BB89E889F9898C9115
:1053B00085FD03C0808186FD0CC00FB607FCF7CFCA
:1053C0008C9185FFF2CF808185FFEDCFCE01C3DFC9
:1053D000EACFDF91CF910895EF92FF920F931F9341
:1053E000CF93DF93EC0181E0888F9B8D8C8D981398
:1053F0001AC0E889F989808185FF15C09FB7F894A4
:10540000EE89FF896083E889F989808183708064EF
:1054100080839FBF81E090E0DF91CF911F910F913A
:10542000FF90EF900895F62E0B8D10E00F5F1F4F49
:105430000F731127E02E8C8D8E110BC00FB607FC59
:10544000FACFE889F989808185FFF5CFCE0183DF26
:10545000F2CFEB8DEC0FFD2FF11DE35AFF4FF082E1
:105460009FB7F8940B8FEA89FB8980818062D0CF47
:10547000CF92DF92EF92FF921F93CF93DF93EC01D5
:105480006A017B01122FE889F98982E08083C114C7
:1054900081EED806E104F10499F060E079E08DE353
:1054A00090E0A7019601A2D221503109410951098A
:1054B0005695479537952795211580E1380790F047
:1054C000E889F989108260E874E88EE190E0A7012C
:1054D00096018CD2215031094109510956954795C1
:1054E00037952795EC85FD853083EE85FF852083F4
:1054F000188EEC89FD891083EA89FB89808180619F
:105500008083EA89FB89808188608083EA89FB89BE
:10551000808180688083EA89FB8980818F7D808398
:10552000DF91CF911F91FF90EF90DF90CF90089582
:105530001F920F920FB60F9211240BB60F922F935A
:105540008F939F93EF93FF93E0914904F0914A0466
:105550008081E0914F04F091500482FD1DC0908144
:10556000809152048F5F8F7320915304821741F012
:10557000E0915204F0E0E75CFB4F958F809352047A
:10558000FF91EF919F918F912F910F900BBE0F90F4
:105590000FBE0F901F9018958081F2CF1F920F922F
:1055A0000FB60F9211240BB60F922F933F934F9388
:1055B0005F936F937F938F939F93AF93BF93EF937B
:1055C000FF9389E394E0C7DEFF91EF91BF91AF9124
:1055D0009F918F917F916F915F914F913F912F910B
:1055E0000F900BBE0F900FBE0F901F901895E9E320
:1055F000F4E01382128288EE93E0A0E0B0E08483AE
:105600009583A683B78386EA92E09183808385ECB5
:1056100090E09587848784EC90E09787868780EC7C
:1056200090E0918B808B81EC90E0938B828B82EC6D
:1056300090E0958B848B86EC90E0978B868B118E17
:10564000128E138E148E08951F920F920FB60F9222
:1056500011240BB60F922F938F939F93EF93FF9389
:10566000E091E604F091E7048081E091EC04F09190
:10567000ED0482FD1DC090818091EF048F5F8F73D8
:105680002091F004821741F0E091EF04F0E0EA523B
:10569000FB4F958F8093EF04FF91EF919F918F9136
:1056A0002F910F900BBE0F900FBE0F901F9018956B
:1056B0008081F2CF1F920F920FB60F9211240BB67A
:1056C0000F922F933F934F935F936F937F938F939B
:1056D0009F93AF93BF93EF93FF9386ED94E03BDEF0
:1056E000FF91EF91BF91AF919F918F917F916F91BA
:1056F0005F914F913F912F910F900BBE0F900FBE76
:105700000F901F901895E6EDF4E01382128288EE58
:1057100093E0A0E0B0E084839583A683B78386EA14
:1057200092E0918380838DEC90E0958784878CEC68
:1057300090E09787868788EC90E0918B808B89EC4E
:1057400090E0938B828B8AEC90E0958B848B8EEC2F
:1057500090E0978B868B118E128E138E148E089587
:105760001F920F920FB60F9211240BB60F922F9328
:105770008F939F93EF93FF93E0918305F0918405BE
:105780008081E0918905F0918A0582FD1DC090819C
:1057900080918C058F5F8F7320918D05821741F06A
:1057A000E0918C05F0E0ED58FA4F958F80938C05D1
:1057B000FF91EF919F918F912F910F900BBE0F90C2
:1057C0000FBE0F901F9018958081F2CF1F920F92FD
:1057D0000FB60F9211240BB60F922F933F934F9356
:1057E0005F936F937F938F939F93AF93BF93EF9349
:1057F000FF9383E795E0AFDDFF91EF91BF91AF910C
:105800009F918F917F916F915F914F913F912F91D8
:105810000F900BBE0F900FBE0F901F901895E3E7EF
:10582000F5E01382128288EE93E0A0E0B0E084837A
:105830009583A683B78386EA92E09183808385ED82
:1058400090E09587848784ED90E09787868780ED48
:1058500090E0918B808B81ED90E0938B828B82ED39
:1058600090E0958B848B86ED90E0978B868B118EE4
:10587000128E138E148E08951F920F920FB60F92F0
:1058800011240BB60F922F938F939F93EF93FF9357
:10589000E0912006F09121068081E0912606F091AA
:1058A000270682FD1DC09081809129068F5F8F732E
:1058B00020912A06821741F0E0912906F0E0E05F8E
:1058C000F94F958F80932906FF91EF919F918F91CA
:1058D0002F910F900BBE0F900FBE0F901F90189539
:1058E0008081F2CF1F920F920FB60F9211240BB648
:1058F0000F922F933F934F935F936F937F938F9369
:105900009F93AF93BF93EF93FF9380E196E023DDE6
:10591000FF91EF91BF91AF919F918F917F916F9187
:105920005F914F913F912F910F900BBE0F900FBE43
:105930000F901F901895E0E1F6E01382128288EE36
:1059400093E0A0E0B0E084839583A683B78386EAE2
:1059500092E09183808385E391E09587848784E357
:1059600091E09787868780E391E0918B808B81E33C
:1059700091E0938B828B82E391E0958B848B86E31D
:1059800091E0978B868B118E128E138E148E089554
:10599000AF92BF92CF92DF92EF92FF920F931F933D
:1059A000CF93DF936C017B018B01040F151FEB017B
:1059B0005E01AE18BF08C017D10759F06991D60132
:1059C000ED91FC910190F081E02DC6011995892B94
:1059D00079F7C501DF91CF911F910F91FF90EF9063
:1059E000DF90CF90BF90AF9008950895A1E21A2E56
:1059F000AA1BBB1BFD010DC0AA1FBB1FEE1FFF1F73
:105A0000A217B307E407F50720F0A21BB30BE40BC2
:105A1000F50B661F771F881F991F1A9469F7609509
:105A20007095809590959B01AC01BD01CF010895C3
:105A3000EE0FFF1F881F8BBF0790F691E02D199482
:105A400009D0A59F900DB49F900DA49F800D911D2E
:105A500011240895A29FB001B39FC001A39F700DB0
:105A6000811D1124911DB29F700D811D1124911D66
:105A70000895FB01DC0102C001900D92415050409D
:105A8000D8F70895DC0101C06D9341505040E0F714
:065A90000895F894FFCF19
:105A96000000FE42FEFFFFFF01E8030000FFFF00DB
:105AA600000000FFFFFFFFFFFFFFFFFFFFFFFFFFFD
:105AB600FF01D102FF00BB0EE70EFE00A10E220C75
:105AC600FD00330E8D0EFC00790E220CF6006A0FD7
:105AD600220CF500400EA90FF400330FC00FDE00B4
